{
  "contractName": "Customer",
  "abi": [
    {
      "inputs": [],
      "payable": false,
      "stateMutability": "nonpayable",
      "type": "constructor"
    },
    {
      "anonymous": false,
      "inputs": [
        {
          "indexed": false,
          "name": "idOrder",
          "type": "uint256"
        }
      ],
      "name": "OrderRaisedOrUpdated",
      "type": "event"
    },
    {
      "constant": false,
      "inputs": [
        {
          "name": "itemName",
          "type": "string"
        },
        {
          "name": "quantity",
          "type": "uint256"
        }
      ],
      "name": "purchaseItem",
      "outputs": [],
      "payable": false,
      "stateMutability": "nonpayable",
      "type": "function"
    },
    {
      "constant": false,
      "inputs": [
        {
          "name": "idOrder",
          "type": "uint256"
        }
      ],
      "name": "recieveItem",
      "outputs": [],
      "payable": false,
      "stateMutability": "nonpayable",
      "type": "function"
    },
    {
      "constant": true,
      "inputs": [
        {
          "name": "idOrder",
          "type": "uint256"
        }
      ],
      "name": "getOrderDetails",
      "outputs": [
        {
          "name": "",
          "type": "string"
        },
        {
          "name": "",
          "type": "uint256"
        },
        {
          "name": "",
          "type": "bool"
        }
      ],
      "payable": false,
      "stateMutability": "view",
      "type": "function"
    },
    {
      "constant": true,
      "inputs": [],
      "name": "getNumberOfItemsPurchased",
      "outputs": [
        {
          "name": "",
          "type": "uint256"
        }
      ],
      "payable": false,
      "stateMutability": "view",
      "type": "function"
    },
    {
      "constant": true,
      "inputs": [],
      "name": "getNumberOfItemsReceived",
      "outputs": [
        {
          "name": "",
          "type": "uint256"
        }
      ],
      "payable": false,
      "stateMutability": "view",
      "type": "function"
    }
  ],
  "bytecode": "0x608060405234801561001057600080fd5b50604080518082018252600181528151808301909252600982527f4a6f686e20536e6f770000000000000000000000000000000000000000000000602083810191909152808201928352600080526002815281517fac33ff75c19e70fe83507db0d683fd3465c996598dc972688b7ace676c89077b908155925180519293926100bc927fac33ff75c19e70fe83507db0d683fd3465c996598dc972688b7ace676c89077c9201906100c5565b50905050610160565b828054600181600116156101000203166002900490600052602060002090601f016020900481019282601f1061010657805160ff1916838001178555610133565b82800160010185558215610133579182015b82811115610133578251825591602001919060010190610118565b5061013f929150610143565b5090565b61015d91905b8082111561013f5760008155600101610149565b90565b6104628061016f6000396000f3006080604052600436106100535763ffffffff60e060020a6000350416630657de3381146100585780631c7aa32a1461007257806377c3d81b146100cd578063d103b02c146100f4578063ec7dd7bb14610109575b600080fd5b34801561006457600080fd5b506100706004356101ab565b005b34801561007e57600080fd5b506040805160206004803580820135601f810184900484028501840190955284845261007094369492936024939284019190819084018382808284375094975050933594506102099350505050565b3480156100d957600080fd5b506100e26102cf565b60408051918252519081900360200190f35b34801561010057600080fd5b506100e26102d6565b34801561011557600080fd5b506101216004356102dc565b604051808060200184815260200183151515158152602001828103825285818151815260200191508051906020019080838360005b8381101561016e578181015183820152602001610156565b50505050905090810190601f16801561019b5780820380516001836020036101000a031916815260200191505b5094505050505060405180910390f35b6001805481018155600082815260036020908152604091829020600401805460ff1916909317909255805183815290517ffd4b9f33f750059f7f0fea80cc0091c7788f7b097feddbd26b1e87482cad21f3929181900390910190a150565b60008054600180820183556040805160a08101825283815260208082018681528284018981526060840189905260808401889052868852600383529390962082518155955193860193909355905180519394919391926102719260028501929091019061039e565b50606082015160038201556080909101516004909101805460ff19169115159190911790556040805182815290517ffd4b9f33f750059f7f0fea80cc0091c7788f7b097feddbd26b1e87482cad21f3916020908290030190a1505050565b6001545b90565b60005490565b60008181526003602081815260408084209283015460048401546002948501805484516101006001831615026000190190911696909604601f8101869004860287018601909452838652606096958695919460ff90931692909185919083018282801561038a5780601f1061035f5761010080835404028352916020019161038a565b820191906000526020600020905b81548152906001019060200180831161036d57829003601f168201915b505050505092509250925092509193909250565b828054600181600116156101000203166002900490600052602060002090601f016020900481019282601f106103df57805160ff191683800117855561040c565b8280016001018555821561040c579182015b8281111561040c5782518255916020019190600101906103f1565b5061041892915061041c565b5090565b6102d391905b8082111561041857600081556001016104225600a165627a7a72305820c2a21b4b95fde41314f888e1ea426c53ce666f384fa4e9a9643ad41f7263ec940029",
  "source": "\npragma solidity ^0.4.26;\n\ncontract Customer {\n\n  /* Events */\n  event OrderRaisedOrUpdated(uint idOrder);\n  struct AvailableCustomer {\n    uint idCustomer;\n    string customerName;\n  }\n\n  struct Orderlog {\n    uint idOrder;\n    uint idCustomer;\n    string itemName;\n    uint quantity;\n    bool status;\n  }\n\n  // STATE Variables.\n  uint numberOfItemsPurchased;\n  uint numberOfItemsReceived;\n\n  // Mappings \n  mapping (uint => AvailableCustomer) customers;\n  mapping (uint => Orderlog) orderLogs;\n\n  /* Constructor */\n  constructor() public {\n      /* For the case of demo, adding a customer in constructor. You can take this idea and extend the contract to contain addCustomer section and hence maintain customerDB in the Blockchain! */\n      customers[0] = AvailableCustomer(1, \"John Snow\");\n  }\n\n  /* TRANSACTIONS */\n  function purchaseItem(string itemName, uint quantity) public {\n    uint idOrder = numberOfItemsPurchased++;\n    orderLogs[idOrder] = Orderlog(idOrder, 0, itemName, quantity, false);\n    emit OrderRaisedOrUpdated(idOrder);\n  }\n\n  function recieveItem(uint idOrder) public {\n      numberOfItemsReceived++;\n      orderLogs[idOrder].status = true;\n      emit OrderRaisedOrUpdated(idOrder);\n  }\n\n  /* GETTERS */\n  function getOrderDetails(uint idOrder) view public returns (string, uint, bool){\n    return (orderLogs[idOrder].itemName, orderLogs[idOrder].quantity, orderLogs[idOrder].status);\n  }\n\n  function getNumberOfItemsPurchased() view public returns (uint) {\n    return numberOfItemsPurchased;\n  }\n\n  function getNumberOfItemsReceived() view public returns (uint) {\n    return numberOfItemsReceived;\n  }\n\n}\n",
  "sourcePath": "/Users/kamakshiraya/Desktop/blockchain project/backend/contracts/Customer.sol",
  "compiler": {
    "name": "solc",
    "version": "0.4.26+commit.4563c3fc.Emscripten.clang"
  },
  "schemaVersion": "3.3.4",
  "updatedAt": "2021-04-20T14:08:08.373Z",
  "networkType": "ethereum",
  "devdoc": {
    "methods": {}
  },
  "userdoc": {
    "methods": {}
  }
}