{
  "contractName": "Supplier",
  "abi": [
    {
      "anonymous": false,
      "inputs": [
        {
          "indexed": false,
          "name": "idItem",
          "type": "uint256"
        }
      ],
      "name": "ItemAdded",
      "type": "event"
    },
    {
      "anonymous": false,
      "inputs": [
        {
          "indexed": false,
          "name": "idOfCustomer",
          "type": "uint256"
        },
        {
          "indexed": false,
          "name": "idOrder",
          "type": "uint256"
        },
        {
          "indexed": false,
          "name": "status",
          "type": "bool"
        }
      ],
      "name": "ProcessAnOrder",
      "type": "event"
    },
    {
      "constant": false,
      "inputs": [
        {
          "name": "itemName",
          "type": "string"
        },
        {
          "name": "price",
          "type": "uint256"
        }
      ],
      "name": "addItem",
      "outputs": [],
      "payable": false,
      "stateMutability": "nonpayable",
      "type": "function"
    },
    {
      "constant": false,
      "inputs": [
        {
          "name": "idOrder",
          "type": "uint256"
        },
        {
          "name": "idCustomer",
          "type": "uint256"
        }
      ],
      "name": "processOrder",
      "outputs": [],
      "payable": false,
      "stateMutability": "nonpayable",
      "type": "function"
    },
    {
      "constant": true,
      "inputs": [
        {
          "name": "idItem",
          "type": "uint256"
        }
      ],
      "name": "getItem",
      "outputs": [
        {
          "name": "",
          "type": "string"
        },
        {
          "name": "",
          "type": "uint256"
        }
      ],
      "payable": false,
      "stateMutability": "view",
      "type": "function"
    },
    {
      "constant": true,
      "inputs": [
        {
          "name": "idOrder",
          "type": "uint256"
        }
      ],
      "name": "getStatus",
      "outputs": [
        {
          "name": "",
          "type": "bool"
        }
      ],
      "payable": false,
      "stateMutability": "view",
      "type": "function"
    },
    {
      "constant": true,
      "inputs": [],
      "name": "getTotalNumberOfAvailableItems",
      "outputs": [
        {
          "name": "",
          "type": "uint256"
        }
      ],
      "payable": false,
      "stateMutability": "view",
      "type": "function"
    },
    {
      "constant": true,
      "inputs": [],
      "name": "getTotalNumberOfOrdersProcessed",
      "outputs": [
        {
          "name": "",
          "type": "uint256"
        }
      ],
      "payable": false,
      "stateMutability": "view",
      "type": "function"
    }
  ],
  "bytecode": "0x608060405234801561001057600080fd5b50610497806100206000396000f30060806040526004361061005e5763ffffffff60e060020a6000350416633129e77381146100635780633946abfd146100fa5780635c622a0e1461012157806362d6bbdf1461014d578063804544c4146101aa578063941e53a7146101c5575b600080fd5b34801561006f57600080fd5b5061007b6004356101da565b6040518080602001838152602001828103825284818151815260200191508051906020019080838360005b838110156100be5781810151838201526020016100a6565b50505050905090810190601f1680156100eb5780820380516001836020036101000a031916815260200191505b50935050505060405180910390f35b34801561010657600080fd5b5061010f610286565b60408051918252519081900360200190f35b34801561012d57600080fd5b5061013960043561028d565b604080519115158252519081900360200190f35b34801561015957600080fd5b506040805160206004803580820135601f81018490048402850184019095528484526101a894369492936024939284019190819084018382808284375094975050933594506102a59350505050565b005b3480156101b657600080fd5b506101a8600435602435610339565b3480156101d157600080fd5b5061010f6103cd565b6000818152600260208181526040808420808401546001918201805484519381161561010002600019011695909504601f81018590048502830185019093528282526060959493909284918301828280156102765780601f1061024b57610100808354040283529160200191610276565b820191906000526020600020905b81548152906001019060200180831161025957829003601f168201915b5050505050915091509150915091565b6001545b90565b60009081526003602052604090206002015460ff1690565b6000805460018082018355604080516060810182528381526020808201888152828401889052858752600282529290952081518155915180519495919492936102f6939085019291909101906103d3565b50604091820151600290910155805182815290517f186760a37e06b130959978c68b5c592841caf4f64de1dc960b2c54cf454ca9dd9181900360200190a1505050565b6040805160608082018352838252602080830186815260018486018181526000898152600385528790209551865591518582015590516002909401805460ff19169415159490941790935582548301835583518581529081018690528084019290925291517f13c5c248f81aca9d8fa3643449bd2debad3b6ec68931a70443181d3e60352ee7929181900390910190a15050565b60005490565b828054600181600116156101000203166002900490600052602060002090601f016020900481019282601f1061041457805160ff1916838001178555610441565b82800160010185558215610441579182015b82811115610441578251825591602001919060010190610426565b5061044d929150610451565b5090565b61028a91905b8082111561044d57600081556001016104575600a165627a7a72305820ce0771740f0cb7a594aac92ed26889a687b32100d8adb333ec7d30c780e405980029",
  "source": "pragma solidity ^0.4.26;\ncontract Supplier {\n  event ItemAdded(uint idItem);\n  event ProcessAnOrder(uint idOfCustomer, uint idOrder, bool status);\n\n  struct Item {\n    uint idItem;\n    string itemName;\n    uint price;\n  }\n\n  struct Orderlog {\n    uint idCustomer;\n    uint idOrder;\n    bool status;\n  }\n\n  // STATE Variables.\n  uint numberOfItemsAvailableForSale;\n  uint numberOfOrdersProcessed;\n\n  // Mappings\n  mapping (uint => Item) items;\n  mapping (uint => Orderlog) orderLogs;\n\n\n  /* TRANSACTIONS */\n  function addItem(string itemName, uint price) public {\n    uint idItem = numberOfItemsAvailableForSale++;\n    items[idItem] = Item(idItem, itemName, price);\n    emit ItemAdded(idItem);\n  }\n\n  function processOrder(uint idOrder, uint idCustomer) public {\n    orderLogs[idOrder] = Orderlog(idCustomer, idOrder, true);\n    numberOfOrdersProcessed ++;\n    emit ProcessAnOrder(idCustomer, idOrder, true);\n  }\n\n  /* GETTERS */\n  function getItem(uint idItem) view public returns (string, uint){\n    return (items[idItem].itemName, items[idItem].price);\n  }\n\n  function getStatus(uint idOrder) view public returns (bool) {\n    return (orderLogs[idOrder].status);\n  }\n\n  function getTotalNumberOfAvailableItems() view public returns (uint) {\n    return numberOfItemsAvailableForSale;\n  }\n\n  function getTotalNumberOfOrdersProcessed() view public returns (uint){\n    return numberOfOrdersProcessed;\n  }\n\n}\n",
  "sourcePath": "/Users/kamakshiraya/Desktop/blockchain project/backend/contracts/Supplier.sol",
  "compiler": {
    "name": "solc",
    "version": "0.4.26+commit.4563c3fc.Emscripten.clang"
  },
  "schemaVersion": "3.3.4",
  "updatedAt": "2021-04-20T14:08:08.370Z",
  "networkType": "ethereum",
  "devdoc": {
    "methods": {}
  },
  "userdoc": {
    "methods": {}
  }
}